[
    {
        "fundingTxId":"8984484a580b825b9972d7adb15050b3ab624ccd731946b3eeddb92f4e7ef6be",
        "fundingOutScript": "OP_2 023da092f6980e58d2c037173180e9a465476026ee50f96695963e8efe436f54eb 030e9f7b623d2ccc7c9bd44d66d5ce21ce504c0acf6385a132cec6d3c39fa711c1 OP_2 OP_CHECKMULTISIG"
    },
    {
        "comment": "*createTestChannelsForVectors (their/bob tx?)",
        "toLocalRedeemScript": "632103f9b004476ef731bac15887882b99c8756d2451800674e4b9f42d2effde4bebc567029000b27521034e0ec6dc63301141448af127eb2d8eba26e8c2bb24d4bfdf8e29afa7bb02657b68ac",
        "toLocalRedeemScriptAsm": "OP_IF 03f9b004476ef731bac15887882b99c8756d2451800674e4b9f42d2effde4bebc5 OP_ELSE 9000 OP_CHECKSEQUENCEVERIFY OP_DROP 034e0ec6dc63301141448af127eb2d8eba26e8c2bb24d4bfdf8e29afa7bb02657b OP_ENDIF OP_CHECKSIG",
        "toLocalScriptHash": "00200b06cd0627da845f27d8f07f27c8cafb9ec0004b6397a7d00ebaf1339a17e54c",
        "toRemoteScript": {
            "PkScript": "002032e8da66b7054d40832c6a7a66df79d8d7bcccd5ffa53f5dd1772cb9cb9f3283",
            "WitnessScript": "21034f355bdcb7cc0af728ef3cceb9615d90684bb5b2ca5f859ab0f0b704075871aaad51b2",
            "WitnessScriptAsm": "034f355bdcb7cc0af728ef3cceb9615d90684bb5b2ca5f859ab0f0b704075871aa OP_CHECKSIGVERIFY OP_1 OP_CHECKSEQUENCEVERIFY"
        },
        "commitTx": "0200000001bef67e4e2fb9ddeeb3461973cd4c62abb35050b1add772995b820b584a4884890000000000ffffffff04c0c62d00000000002200200b06cd0627da845f27d8f07f27c8cafb9ec0004b6397a7d00ebaf1339a17e54ce48d6a000000000022002032e8da66b7054d40832c6a7a66df79d8d7bcccd5ffa53f5dd1772cb9cb9f32834a01000000000000220020e9e86e4823faa62e222ebc858a226636856158f07e69898da3b0d1af0ddb39944a010000000000002200202b1b5854183c12d3316565972c4668929d314d81c5dcdbb21cb45fe8a9a8114f00000000"
    },
    {
        "comment": "*createTestChannelsForVectors (our/alice tx?)",
        "toLocalRedeemScript": "63210212a140cd0c6539d07cd08dfe09984dec3251ea808b892efeac3ede9402bf2b1967029000b2752103fd5960528dc152014952efdb702a88f71e3c1653b2314431701ec77e57fde83c68ac",
        "toLocalRedeemScriptAsm": "OP_IF 0212a140cd0c6539d07cd08dfe09984dec3251ea808b892efeac3ede9402bf2b19 OP_ELSE 9000 OP_CHECKSEQUENCEVERIFY OP_DROP 03fd5960528dc152014952efdb702a88f71e3c1653b2314431701ec77e57fde83c OP_ENDIF OP_CHECKSIG",
        "toLocalScriptHash": "00204adb4e2f00643db396dd120d4e7dc17625f5f2c11a40d857accc862d6b7dd80e",
        "toRemoteScript": {
            "PkScript": "0020f3394e1e619b0eca1f91be2fb5ab4dfc59ba5b84ebe014ad1d43a564d012994a",
            "WitnessScript": "21032c0b7cf95324a07d05398b240174dc0c2be444d96b159aa6c7f7b1e668680991ad51b2",
            "WitnessScriptAsm": "032c0b7cf95324a07d05398b240174dc0c2be444d96b159aa6c7f7b1e668680991 OP_CHECKSIGVERIFY OP_1 OP_CHECKSEQUENCEVERIFY"
        },
        "commitTx": "0200000001bef67e4e2fb9ddeeb3461973cd4c62abb35050b1add772995b820b584a4884890000000000ffffffff04e48d6a00000000002200204adb4e2f00643db396dd120d4e7dc17625f5f2c11a40d857accc862d6b7dd80ec0c62d0000000000220020f3394e1e619b0eca1f91be2fb5ab4dfc59ba5b84ebe014ad1d43a564d012994a4a010000000000002200202b1b5854183c12d3316565972c4668929d314d81c5dcdbb21cb45fe8a9a8114f4a01000000000000220020e9e86e4823faa62e222ebc858a226636856158f07e69898da3b0d1af0ddb399400000000"
    },
    {
        "comment": "SignNextCommitment (localChannel - their/bob tx)",
        "toLocalRedeemScript": "632103f9b004476ef731bac15887882b99c8756d2451800674e4b9f42d2effde4bebc567029000b27521034e0ec6dc63301141448af127eb2d8eba26e8c2bb24d4bfdf8e29afa7bb02657b68ac",
        "toLocalScriptHash": "00200b06cd0627da845f27d8f07f27c8cafb9ec0004b6397a7d00ebaf1339a17e54c",
        "toRemoteScript": {
            "PkScript": "002032e8da66b7054d40832c6a7a66df79d8d7bcccd5ffa53f5dd1772cb9cb9f3283",
            "WitnessScript": "21034f355bdcb7cc0af728ef3cceb9615d90684bb5b2ca5f859ab0f0b704075871aaad51b2"
        },
        "commitTx": "0200000001bef67e4e2fb9ddeeb3461973cd4c62abb35050b1add772995b820b584a4884890000000000ffffffff04c0c62d00000000002200200b06cd0627da845f27d8f07f27c8cafb9ec0004b6397a7d00ebaf1339a17e54c508b6a000000000022002032e8da66b7054d40832c6a7a66df79d8d7bcccd5ffa53f5dd1772cb9cb9f32834a01000000000000220020e9e86e4823faa62e222ebc858a226636856158f07e69898da3b0d1af0ddb39944a010000000000002200202b1b5854183c12d3316565972c4668929d314d81c5dcdbb21cb45fe8a9a8114f00000000"
    },
    {
        "comment": "ReceiveNewCommitment (remoteChannel - our/alice tx)",
        "toLocalRedeemScript": "632103f9b004476ef731bac15887882b99c8756d2451800674e4b9f42d2effde4bebc567029000b27521034e0ec6dc63301141448af127eb2d8eba26e8c2bb24d4bfdf8e29afa7bb02657b68ac",
        "toLocalScriptHash": "00200b06cd0627da845f27d8f07f27c8cafb9ec0004b6397a7d00ebaf1339a17e54c",
        "toRemoteScript": {
            "PkScript": "002032e8da66b7054d40832c6a7a66df79d8d7bcccd5ffa53f5dd1772cb9cb9f3283",
            "WitnessScript": "21034f355bdcb7cc0af728ef3cceb9615d90684bb5b2ca5f859ab0f0b704075871aaad51b2"
        },
        "commitTx": "0200000001bef67e4e2fb9ddeeb3461973cd4c62abb35050b1add772995b820b584a4884890000000000ffffffff04c0c62d00000000002200200b06cd0627da845f27d8f07f27c8cafb9ec0004b6397a7d00ebaf1339a17e54c508b6a000000000022002032e8da66b7054d40832c6a7a66df79d8d7bcccd5ffa53f5dd1772cb9cb9f32834a01000000000000220020e9e86e4823faa62e222ebc858a226636856158f07e69898da3b0d1af0ddb39944a010000000000002200202b1b5854183c12d3316565972c4668929d314d81c5dcdbb21cb45fe8a9a8114f00000000"
    },
    {
        "comment": "SignNextCommitment (remoteChannel - their/alice tx)",
        "toLocalRedeemScript": "63210212a140cd0c6539d07cd08dfe09984dec3251ea808b892efeac3ede9402bf2b1967029000b2752103fd5960528dc152014952efdb702a88f71e3c1653b2314431701ec77e57fde83c68ac",
        "toLocalScriptHash": "00204adb4e2f00643db396dd120d4e7dc17625f5f2c11a40d857accc862d6b7dd80e",
        "toRemoteScript": {
            "PkScript": "0020f3394e1e619b0eca1f91be2fb5ab4dfc59ba5b84ebe014ad1d43a564d012994a",
            "WitnessScript": "21032c0b7cf95324a07d05398b240174dc0c2be444d96b159aa6c7f7b1e668680991ad51b2"
        },
        "commitTx": "0200000001bef67e4e2fb9ddeeb3461973cd4c62abb35050b1add772995b820b584a4884890000000000ffffffff04508b6a00000000002200204adb4e2f00643db396dd120d4e7dc17625f5f2c11a40d857accc862d6b7dd80ec0c62d0000000000220020f3394e1e619b0eca1f91be2fb5ab4dfc59ba5b84ebe014ad1d43a564d012994a4a010000000000002200202b1b5854183c12d3316565972c4668929d314d81c5dcdbb21cb45fe8a9a8114f4a01000000000000220020e9e86e4823faa62e222ebc858a226636856158f07e69898da3b0d1af0ddb399400000000"
    },
    {
        "comment": "ReceiveNewCommitment (localChannel - our/alice tx)",
        "toLocalRedeemScript": "63210212a140cd0c6539d07cd08dfe09984dec3251ea808b892efeac3ede9402bf2b1967029000b2752103fd5960528dc152014952efdb702a88f71e3c1653b2314431701ec77e57fde83c68ac",
        "toLocalScriptHash": "00204adb4e2f00643db396dd120d4e7dc17625f5f2c11a40d857accc862d6b7dd80e",
        "toRemoteScript": {
            "PkScript": "0020f3394e1e619b0eca1f91be2fb5ab4dfc59ba5b84ebe014ad1d43a564d012994a",
            "WitnessScript": "21032c0b7cf95324a07d05398b240174dc0c2be444d96b159aa6c7f7b1e668680991ad51b2"
        },
        "commitTx": "0200000001bef67e4e2fb9ddeeb3461973cd4c62abb35050b1add772995b820b584a4884890000000000ffffffff04508b6a00000000002200204adb4e2f00643db396dd120d4e7dc17625f5f2c11a40d857accc862d6b7dd80ec0c62d0000000000220020f3394e1e619b0eca1f91be2fb5ab4dfc59ba5b84ebe014ad1d43a564d012994a4a010000000000002200202b1b5854183c12d3316565972c4668929d314d81c5dcdbb21cb45fe8a9a8114f4a01000000000000220020e9e86e4823faa62e222ebc858a226636856158f07e69898da3b0d1af0ddb399400000000"
    }
]